:020000040000FA
:0400000007EF00F016
:100008003482D6ED01F0D7EF06F01850800B256E3C
:10001800185018242C6E17AE14EF00F016EF00F0ED
:1000280017EF00F02C802C50D8B41DEF00F01FEF14
:1000380000F034EF00F02C28D8A425EF00F027EFCB
:1000480000F02FEF00F0000E156E000E166E000E79
:10005800176E000E186E178E000E186E3CEF00F02B
:10006800000E156E000E166E000E176E000E186E3E
:100078001C50800B251A1C501C242D6E1BAE47EFFC
:1000880000F049EF00F04AEF00F02D802D50D8B471
:1000980050EF00F052EF00F067EF00F02D28D8A4E1
:1000A80058EF00F05AEF00F062EF00F0000E196E02
:1000B800000E1A6E000E1B6E000E1C6E1B8E000EBC
:1000C8001C6E6FEF00F0000E196E000E1A6E000E17
:1000D8001B6E000E1C6E19501A101B101C10D8A491
:1000E80078EF00F07AEF00F092EF00F0000E156E56
:1000F800000E166E000E176E000E186E800E171288
:100108007F0E18122550181215C015F016C016F0DB
:1001180017C017F018C018F0D5EF01F02C50D8A46C
:1001280098EF00F09AEF00F0A4EF00F0000E156EC3
:10013800000E166E000E176E000E186ED5EF01F049
:100148002D502CC01DF01E6A1D5E000E1E5A7F0E1B
:100158001D24266E000E1E20276E15C021F016C025
:1001680022F017C023F018C024F0000E156E000E00
:10017800166E000E176E000E186E000E286E000E1A
:10018800296E000E2A6E000E2B6E000E2D6E05EFE6
:1001980001F02D50D8B4D3EF00F0D5EF00F0ECEF1C
:1001A80000F0D8902136223623362436D8901536DA
:1001B8001636173618362BAEE4EF00F0E6EF00F0EF
:1001C800E7EF00F01580D890283629362A362B36E6
:1001D8001950215C1A5022581B5023581C5024587F
:1001E800D8A0F9EF00F0FBEF00F004EF01F02B8C42
:1001F8001950215E1A50225A1B50235A1C50245A57
:100208002D2A190E2D640BEF01F00DEF01F0CDEF43
:1002180000F02150221023102410D8B416EF01F05A
:1002280018EF01F030EF01F0288030EF01F0D8909E
:1002380015361636173618362BAE25EF01F027EF90
:1002480001F028EF01F01580D890283629362A3693
:100258002B362606D8A0270617AE35EF01F037EF64
:1002680001F01BEF01F0000E2D6E2BAE3EEF01F0FA
:1002780040EF01F064EF01F0FF0E28141D6EFF0E31
:1002880029141E6EFF0E2A141F6E7F0E2B14206E6B
:100298001D501E101F102010D8B455EF01F057EF55
:1002A80001F05BEF01F0010E2D6E64EF01F015A077
:1002B80060EF01F062EF01F064EF01F057EF01F039
:1002C8002D50D8B46AEF01F06CEF01F090EF01F017
:1002D800010E1526000E16221722182218A077EFF5
:1002E80001F079EF01F090EF01F015C01DF016C094
:1002F8001EF017C01FF018C020F0203420321F3223
:100308001E321D321DC015F01EC016F01FC017F09A
:1003180020C018F0264A272A27BE9BEF01F0275055
:1003280008E12628D8A09BEF01F09DEF01F0A8EF87
:1003380001F0000E276E2668000E156E000E166E70
:10034800000E176E000E186E27BEB5EF01F027508D
:1003580006E12604D8B0B3EF01F0B5EF01F0C3EF22
:1003680001F0000E276E000E266E000E156E000EB0
:10037800166E000E176E000E186E000E256E26C043
:100388002CF02CA0CAEF01F0CCEF01F0CFEF01F078
:10039800178ED0EF01F0179ED8902C30186E86EF8C
:1003A80000F012000600F3CF30F0F4CF31F09EAC2D
:1003B800E0EF01F0E2EF01F01CEF02F0C4502F6E05
:1003C8002E6AC3502E24326E000E2F20336E32C098
:1003D80001F033C002F0000E046E050E036EEEEC61
:1003E80006F001C007F002C008F0000E08BEFF0EBC
:1003F800096E0A6E010E12EC04F007C015F008C071
:1004080016F009C017F00AC018F00A0E196ED70EB8
:100418001A6E230E1B6E410E1C6E09EC00F015C0FF
:1004280078F016C079F017C07AF018C07BF09E9C5F
:10043800F2A021EF02F023EF02F002EF03F0000137
:100448008869896981B02BEF02F02DEF02F059EF2E
:1004580002F081B832EF02F034EF02F038EF02F028
:10046800000E896F010E886F81BA3DEF02F03FEFF1
:1004780002F043EF02F0000E896F040E886F81BC12
:1004880048EF02F04AEF02F04EEF02F0000E896FDB
:10049800070E886F81BE53EF02F055EF02F059EF57
:1004A80002F0000E896F0A0E886F81B25EEF02F0CB
:1004B80060EF02F08CEF02F081B865EF02F067EFB1
:1004C80002F06BEF02F0000E896F020E886F81BA9E
:1004D80070EF02F072EF02F076EF02F0000E896F13
:1004E800050E886F81BC7BEF02F07DEF02F081EF93
:1004F80002F0000E896F080E886F81BE86EF02F049
:1005080088EF02F08CEF02F0000E896F000E886F02
:1005180081B491EF02F093EF02F0BFEF02F081B8DF
:1005280098EF02F09AEF02F09EEF02F0000E896F4A
:10053800030E886F81BAA3EF02F0A5EF02F0A9EFCE
:1005480002F0000E896F060E886F81BCAEEF02F0D4
:10055800B0EF02F0B4EF02F0000E896F090E886F59
:1005680081BEB9EF02F0BBEF02F0BFEF02F0000E60
:10057800856F010E846F81A8C4EF02F0C6EF02F008
:10058800BFEF02F081AACBEF02F0CDEF02F0BFEF90
:1005980002F081ACD2EF02F0D4EF02F0BFEF02F02C
:1005A80081AED9EF02F0DBEF02F0BFEF02F00001FD
:1005B80089BFE1EF02F0E3EF02F0F3EF02F089BF49
:1005C800F1EF02F0895107E10A0E885DD8B0EFEF2C
:1005D80002F0F1EF02F0F3EF02F0864B872B0A0EE0
:1005E80088198911D8A4FBEF02F0FDEF02F001EFA2
:1005F80003F0000E856F000E846FF29031C0F4FF97
:1006080030C0F3FF34921100700ED312D350FC0B9C
:100618000209D36E010E926EF00E936E800E956EE7
:10062800000E806E0F0E816E000E836E0E0EC16E70
:10063800000EC26E910EC06EC280F28EF28C9D8C3E
:100648009E9CF286F290F19E80C06CF081C06DF0A5
:100658007EC06EF07FC06FF0ECEC04F006EC06F0A4
:100668008982000186058711D8A43DEF03F03FEF8A
:1006780003F05AEF03F089BF44EF03F046EF03F0AD
:100688005AEF03F089BF54EF03F0895107E10A0ECE
:10069800885DD8B052EF03F054EF03F05AEF03F03F
:1006A80088C080F089C081F088698969020E86193E
:1006B8008711D8A462EF03F064EF03F07FEF03F033
:1006C80089BF69EF03F06BEF03F07FEF03F089BF99
:1006D80079EF03F0895107E10A0E885DD8B077EF0A
:1006E80003F079EF03F07FEF03F088C07EF089C054
:1006F8007FF08869896987BF8BEF03F0875109E12B
:10070800020E865DD8A08BEF03F08DEF03F028EF83
:1007180003F00A0E88198911D8A495EF03F097EF12
:1007280003F028EF03F08992F9EF03F080C06CF032
:1007380081C06DF07EC06EF07FC06FF0ECEC04F00D
:10074800B0EF03F0000E6D6F0B0E6C6F000E6F6F45
:100758000A0E6E6FECEC04F0000184058511D8B424
:10076800B8EF03F0BAEF03F0A6EF03F078C060F03B
:1007780079C061F07AC062F07BC063F0000E646FEC
:10078800000E656F700E666F420E676F81EC06F0A3
:100798000001D8B0D2EF03F0D4EF03F0A6EF03F0D6
:1007A8007C4B7D2B7DBFE2EF03F0F50E7C5D010EE7
:1007B8007D59D8A0E2EF03F0E4EF03F09AEF03F0DD
:1007C800000E7D6F000E7C6F7E07D8A07F077FBF6D
:1007D800F2EF03F0F0EF03F0D6EF03F0000E7F6FB7
:1007E800090E7E6F8007D8A0810781BF00EF04F053
:1007F800FEEF03F0EBEF03F0000E816F000E806F49
:10080800000E7F6F000E7E6F88698969000E876F02
:10081800000E866F28EF03F007EF00F00F6E0F5001
:10082800D8B419EF04F01BEF04F03DEF04F00ABE52
:1008380022EF04F020EF04F03DEF04F007C00BF0C6
:1008480008C00CF009C00DF00AC00EF00B1E0C1EFB
:100858000D1E0E1E0B2A000E0C220D220E220BC09E
:1008680011F00CC012F00DC013F00EC014F045EFDB
:1008780004F007C011F008C012F009C013F00AC054
:1008880014F00750081009100A10D8A44EEF04F00D
:1008980050EF04F05AEF04F0000E076E000E086ED9
:1008A800000E096E000E0A6EEBEF04F0960E106E45
:1008B80064EF04F0102AD890143213321232113235
:1008C800000E11140B6E000E12140C6E000E131491
:1008D8000D6EFE0E14140E6E0B500C100D100E1033
:1008E800D8A479EF04F07BEF04F05EEF04F089EF11
:1008F80004F0102A010E1126000E122213221422CF
:10090800D8901432133212321132000E11140B6EB9
:10091800000E12140C6E000E13140D6EFF0E14143C
:100928000E6E0B500C100D100E10D8A49EEF04F094
:10093800A0EF04F07DEF04F0A8EF04F01006D890C3
:10094800113612361336143613BEADEF04F0AFEF7E
:1009580004F0B7EF04F0020E1060B5EF04F0B7EF43
:1009680004F0A2EF04F010B0BCEF04F0BEEF04F006
:10097800BFEF04F0139ED890103210C00BF00C6A31
:100988000D6A0E6A0BC00EF00D6A0C6A0B6A0B50EA
:1009980011120C5012120D5013120E5014120F5047
:1009A800D8B4D9EF04F0DBEF04F0E3EF04F00ABEAB
:1009B800E2EF04F0E0EF04F0E3EF04F0148E11C06E
:1009C80007F012C008F013C009F014C00AF01200B2
:1009D800000E0001716F000E706F83AEF6EF04F029
:1009E800F8EF04F01FEF05F0F29EF29C000E816F05
:1009F800000E806F000E7F6F000E7E6F6C696D6950
:100A0800000E876F000E866F000E856F000E846FD4
:100A1800000E836F010E826F000E786F000E796FE3
:100A2800000E7A6F000E7B6F83BE1DEF05F01FEF7F
:100A380005F018EF05F0C282FE0E8A6EFD0E8A6E72
:100A4800FB0E8A6E89882DEF05F06CC083FF704B12
:100A5800712B000171BF3AEF05F0715109E1320EB7
:100A6800705DD8A03AEF05F03CEF05F029EF05F0EE
:100A7800000E716F000E706F8998898A48EF05F033
:100A88006EC08CFF704B712B71BF54EF05F0715124
:100A980009E1320E705DD8A054EF05F056EF05F06D
:100AA80044EF05F0899A78C060F079C061F07AC0A7
:100AB80062F07BC063F0000E646F000E656F700E0D
:100AC800666F420E676F83EC05F00001D8A06FEFE8
:100AD80005F071EF05F074EF05F0898675EF05F004
:100AE800899684058511D8A47CEF05F07EEF05F082
:100AF80081EF05F0898482EF05F089941200000ED9
:100B080000016015686F000E6115696F800E62152F
:100B18006A6F7F0E63156B6F685169116A116B11EB
:100B2800D8A499EF05F09BEF05F0A3EF05F0000EB0
:100B3800606F000E616F000E626F000E636F000E33
:100B48006415686F000E6515696F800E66156A6F0B
:100B58007F0E67156B6F685169116A116B11D8A404
:100B6800B8EF05F0BAEF05F0C2EF05F0000E646FBC
:100B7800000E656F000E666F000E676F63AFC7EFFC
:100B880005F0C9EF05F0D2EF05F0606D611FD8B030
:100B9800612B621FD8B0622B800E635767AFD7EF07
:100BA80005F0D9EF05F0E2EF05F0646D651FD8B0E8
:100BB800652B661FD8B0662B800E6757000E601B2A
:100BC800000E611B000E621B800E631B000E641B6F
:100BD800000E651B000E661B800E671B6451605D6E
:100BE800655161596651625967516359D8B0FFEF31
:100BF80005F001EF06F004EF06F0D89005EF06F0D7
:100C0800D8801200000182058311D8A40EEF06F0E7
:100C180010EF06F080EF06F0000E756F000E746F8F
:100C2800898289848986060E0001736F130E726F9C
:100C3800AD0EE82EFED7722FFCD7732FFAD700D04F
:100C4800899289948996060E0001736F130E726F4C
:100C5800AD0EE82EFED7722FFCD7732FFAD700D02F
:100C68000001744B752B75BF43EF06F0755109E110
:100C7800030E745DD8A043EF06F045EF06F014EFBD
:100C880006F0000E776F010E766F58EF06F076C00B
:100C98006CF077C06DF076C06EF077C06FF0ECEC5A
:100CA80004F000017C4B7D2B7DBF64EF06F0F50E50
:100CB8007C5D010E7D59D8A064EF06F066EF06F062
:100CC8004BEF06F0000E7D6F000E7C6F764B772B96
:100CD80077BF78EF06F0775109E10A0E765DD8A064
:100CE80078EF06F07AEF06F058EF06F0F28EF28C05
:100CF800000E836F000E826F1200000E0001601557
:100D0800686F000E6115696F800E62156A6F7F0E3D
:100D180063156B6F685169116A116B11D8A497EF4D
:100D280006F099EF06F0A1EF06F0000E606F000ED6
:100D3800616F000E626F000E636F000E6415686FBE
:100D4800000E6515696F800E66156A6F7F0E671550
:100D58006B6F685169116A116B11D8A4B6EF06F070
:100D6800B8EF06F0C0EF06F0000E646F000E656F76
:100D7800000E666F000E676F645160190FE16551D0
:100D880061190CE16651621909E167516319D8B418
:100D9800D0EF06F0D2EF06F0D5EF06F0D890D6EFF8
:100DA80006F0D8801200020EF66E0E0EF76E000ED8
:100DB800F86E0900F5CF88F00900F5CF89F000EE4C
:100DC80078F0100EEE6AE806FDE1349034920001E6
:100DD80008EF03F001500302F3CF05F0F4CF06F05B
:100DE80001500402F350062602500302F35006266F
:0C0DF80005C001F006C002F01200FFFF71
:020000040020DA
:08000000FFFFFFFFFFFFFFFF00
:020000040030CA
:0E00000000051F1FFF8385FF0FC00FE00F409C
:00000001FF
