:020000040000FA
:040000003FEF3DF0A1
:107A7E00000114EF3FF001500302F3CF05F0F4CFF5
:107A8E0006F001500402F350062602500302F35092
:107A9E00062605C001F006C002F01200000E0C6EA4
:107AAE000ABE5EEF3DF05CEF3DF064EF3DF0096C19
:107ABE000A1ED8B00A2A010E0C6E08BE6BEF3DF0FE
:107ACE0069EF3DF071EF3DF0076C081ED8B0082A43
:107ADE00010E0C1A000E0E6E000E0D6E09500A10DD
:107AEE00D8B47CEF3DF07EEF3DF0A6EF3DF0010EF9
:107AFE000B6E86EF3DF0D89009360A360B2A0AAE89
:107B0E008BEF3DF08DEF3DF082EF3DF0D8900D36CE
:107B1E000E360950075C0A500858D8A099EF3DF070
:107B2E009BEF3DF0A0EF3DF00950075E0A50085A5A
:107B3E000D80D8900A3209320B2E8DEF3DF00C508D
:107B4E00D8B4ACEF3DF0AEEF3DF0B2EF3DF00D6CC2
:107B5E000E1ED8B00E2A0DC007F00EC008F012008F
:107B6E00033404340A6E0A50D8A4C0EF3DF0C2EFBD
:107B7E003DF0CCEF3DF0000E016E000E026E000ED9
:107B8E00036E000E046E39EF3EF001C005F002C028
:107B9E0006F003C007F004C008F0200EDCEF3DF045
:107BAE00D8900832073206320532E82ED7EF3DF074
:107BBE000550096E038EFF0E0116FF0E0216FF0E04
:107BCE000316000E0416960E0A5E0ABEF3EF3DF083
:107BDE00F1EF3DF009EF3EF00A50800A970FD8B052
:107BEE00FBEF3DF0FDEF3DF0FFEF3DF0C2EF3DF05E
:107BFE00D89004320332023201320A3EFFEF3DF0DA
:107C0E0021EF3EF01F0E0A640FEF3EF011EF3EF033
:107C1E0019EF3EF0C2EF3DF0D89001360236033632
:107C2E0004360A060A50D8A41FEF3EF021EF3EF0AC
:107C3E0013EF3EF00950D8B427EF3EF029EF3EF097
:107C4E0031EF3EF0041E031E021E016C000E0222D6
:107C5E000322042201C001F002C002F003C003F0AF
:107C6E0004C004F01200176E1750D8B441EF3EF066
:107C7E0043EF3EF065EF3EF012BE4AEF3EF048EFA6
:107C8E003EF065EF3EF00FC013F010C014F011C0BF
:107C9E0015F012C016F0131E141E151E161E132AF2
:107CAE00000E14221522162213C019F014C01AF059
:107CBE0015C01BF016C01CF06DEF3EF00FC019F092
:107CCE0010C01AF011C01BF012C01CF00F50101093
:107CDE0011101210D8A476EF3EF078EF3EF082EF3E
:107CEE003EF0000E0F6E000E106E000E116E000EA6
:107CFE00126E13EF3FF0960E186E8CEF3EF0182AB0
:107D0E00D8901C321B321A321932000E1914136E0F
:107D1E00000E1A14146E000E1B14156EFE0E1C149B
:107D2E00166E1350141015101610D8A4A1EF3EF0B5
:107D3E00A3EF3EF086EF3EF0B1EF3EF0182A010EB3
:107D4E001926000E1A221B221C22D8901C321B321E
:107D5E001A321932000E1914136E000E1A14146E04
:107D6E00000E1B14156EFF0E1C14166E13501410FD
:107D7E0015101610D8A4C6EF3EF0C8EF3EF0A5EFD2
:107D8E003EF0D0EF3EF01806D89019361A361B3654
:107D9E001C361BBED5EF3EF0D7EF3EF0DFEF3EF0C8
:107DAE00020E1860DDEF3EF0DFEF3EF0CAEF3EF060
:107DBE0018B0E4EF3EF0E6EF3EF0E7EF3EF01B9E2C
:107DCE00D890183218C013F0146A156A166A13C0C8
:107DDE0016F0156A146A136A1350191214501A12F7
:107DEE0015501B1216501C121750D8B401EF3FF04D
:107DFE0003EF3FF00BEF3FF012BE0AEF3FF008EF3C
:107E0E003FF00BEF3FF01C8E19C00FF01AC010F0B0
:107E1E001BC011F01CC012F01200700ED312D35002
:107E2E00FC0B0209D36E010E926E000E956E000EC3
:107E3E00946E000E806E000E836E000E826E0E0E1D
:107E4E00C16E000EC26E910EC06EC280000E2C6E00
:107E5E00000E2B6E000E286E000E276E000E2A6E80
:107E6E00000E296E000E1F6E000E206E000E216E8B
:107E7E00000E226E000E236E000E246E000E256E76
:107E8E00000E266EC282F5EF3FF0C4501E6E1D6AC4
:107E9E00C3501D242D6E000E1E202E6E2EBE5FEFC3
:107EAE003FF0020E2E5CD8A05FEF3FF061EF3FF087
:107EBE0064EF3FF0808865EF3FF08098030E0A6E06
:107ECE0009682DC001F02EC002F0000E046E050EE2
:107EDE00036E42EC3DF001C007F002C008F055EC15
:107EEE003DF007C00FF008C010F0000E10BEFF0EE0
:107EFE00116E126E010E3AEC3EF00FC01FF010C064
:107F0E0020F011C021F012C022F0030E0A6E096893
:107F1E002DC001F02EC002F0000E046E320E036E64
:107F2E0042EC3DF001C007F002C008F055EC3DF008
:107F3E0007C00FF008C010F0000E10BEFF0E116E3D
:107F4E00126E010E3AEC3EF00FC023F010C024F07A
:107F5E0011C025F012C026F01FC001F020C002F0A3
:107F6E0021C003F022C004F0B7EC3DF001C02BF0AD
:107F7E0002C02CF023C001F024C002F025C003F093
:107F8E0026C004F0B7EC3DF001C027F002C028F087
:107F9E002BC001F02CC002F0FF0E046EF60E036E25
:107FAE0042EC3DF027500124296E285002202A6E03
:107FBE00828C2BC083FF030E1D6E980EE82EFED70B
:107FCE001D2EFCD7829C828E29C083FF030E1D6E50
:107FDE00980EE82EFED71D2EFCD7829EC2B2FAEF67
:107FEE003FF0FCEF3FF04CEF3FF049EF3FF000EF7A
:027FFE0000F091
:020000040020DA
:08000000FFFFFFFFFFFFFFFF00
:020000040030CA
:0E00000000051F1FFF8385FF0FC00FE00F409C
:00000001FF
